:020000040800F2
:1000000070110020D5000008DD000008DF000008A6
:1000100000000000000000000000000000000000E0
:10002000000000000000000000000000E1000008E7
:100030000000000000000000E3000008E5000008E8
:10004000E700000800000000E7000008E7000008E3
:10005000E7000008E7000008E7000008E7000008E4
:1000600000000000E7000008E7000008E7000008C3
:10007000E7000008E7000008E700000800000000B3
:10008000E11900080000000000000000E70000087F
:1000900000000000E7000008E7000008E700000893
:1000A000E7000008E7000008E7000008E700000894
:1000B000E700000800000000000000000000000051
:1000C0000348854600F040FB00480047E91F000850
:1000D000701100200448804704480047FEE7FEE70F
:1000E000FEE7FEE7FEE7FEE771190008C100000821
:1000F00030B50B46014600202022012409E00D46C0
:10010000D5409D4205D31D469540491B2546954047
:1001100040191546521E002DF1DC30BD70B500248B
:100120002546002801DA01244042002901DA012590
:100130004942FFF7DDFFAC4200D04042002C00D026
:10014000494270BDD2B201E00270401C491EFBD290
:1001500070470022F6E710B513460A4604461946D2
:10016000FFF7F0FF204610BD024670B54A40D30F9E
:10017000DB0740002DD04A002AD0010E140E0002E9
:1001800012020919400A520A8418E5010446544330
:10019000000A120A2E045043A4194219200CC54328
:1001A000AA18120C0125AD03521C521912047F39F2
:1001B000240400D0521C104301D44000491EC2B296
:1001C0000C06C0092018401C4008802A02D003E019
:1001D000002070BD40084000002900DA00201843CC
:1001E00070BD0000F0B51FB488B00B9909980024C9
:1001F00048400999C00F490049080991C0070B9967
:100200000090490049080B9109990898A6460843AF
:100210001CD00B990A98084318D009980124400073
:10022000420D4800410D099824050003000B2043AE
:1002300009900B980003000B20430B9050181C49A9
:100240004018002201901446104605E000200146A7
:100250000DB0F0BD032801DA034600E003239C46FD
:10026000C11A0AAE0AE05F0008ADED5B4F00F75B14
:100270007D430027AA187C41491C5B1E6145F2DDC5
:10028000410004AB5A522104120C0A43240C401CB6
:100290000828DFDB019802900099704601910090D8
:1002A000059B049A0799069800F09DF8D0E7000096
:1002B0000DFCFFFF10B500229623114600F04DF80B
:1002C00010BDC20FD207400040080BD0C10D07235C
:1002D000DB01C91840020905400A1143C208400762
:1002E00011437047002001467047F0B51FB4064621
:1002F000002082B005464024019100901BE0019946
:1003000022460F46304600F041FA049A059B801AB7
:10031000994110D310461946224600F027FA361AA2
:100320008F410197224601200021009F00F01EFA14
:1003300038184D4100902046641E0028DFDC019BE8
:1003400000982946324607B0F0BD002904DA401C67
:10035000490001D140084000704770B40024050CEA
:1003600005D11024000402D1002921D01124050E4A
:1003700001D100020834050F01D10001241D850FB1
:1003800001D18000A41C002801DB4000641C00296E
:1003900008D020252E1B0D46F540A14000D001219C
:1003A0002943084301061B1B000ADB1D02D5002060
:1003B00070BC7047DB05181880180029F8DA401C5B
:1003C0004900F5D170BC40084000704710B5002BC3
:1003D00008DA0024401C614192185B411A4301D1A4
:1003E0004008400010BDF0B51FB482B005460C00B7
:1003F00003D0084602F04CF902E002F049F920303F
:10040000024600902146284600F0B0F9049B059A68
:1004100004460F4618431143084314D018461043AE
:100420001BD0009840210A1A1846059900F0AEF931
:1004300005460E46009A0599049800F097F908437E
:1004400005D0012004E02046394607B0F0BD002069
:10045000C11705430E432C43374300990E9863059B
:10046000401A7905E40A00220C43FD0A0A3002D53D
:1004700000200146E9E70105101969410C9C0D9D1A
:1004800000196941FFF7A2FFDFE70000F0B507465A
:100490000846584087B0C00F049048000E465900E7
:1004A00040084908BC1A884105D2384631461E46E4
:1004B00017460B4602465800400810434CD0300DFA
:1004C000039040055900400D490D0590401A0290D7
:1004D000402872DA18030121000B09050843019036
:1004E00004980092002805D00199524200208841CA
:1004F00000920190029840210A1A0199009800F098
:1005000035F905460C466B4607CB00F050F9C0198B
:100510007141039A0E0D0023D71756401A467A40B0
:10052000164344D0049A002A2DD0029A012A039A35
:1005300015DC1205C01A914101263605001C7141D7
:10054000D20F059ED2070093019202962A462346B7
:10055000FFF749FF07B0F0BD38463146FAE7160508
:10056000224A0F46B218C01AB74101210905001CE2
:100570004F4100187F41114618187941E20F10438E
:100580006D19644113E0E2076D0815436408C20762
:100590001443039A01261205C01A91413605001C26
:1005A0007141CE07400830434908C01851412A46DE
:1005B0002346FFF70BFFCDE7FFE704980122400039
:1005C000C117121A00238B4104983146C417381AF8
:1005D000A141EEE730B40124E407634030BC55E7A5
:1005E00030B40124E407614030BC4FE70000E0FF75
:1005F000F0B50C465C4085B0E40FE40703944C0072
:10060000002664085900944649080246029622438F
:1006100021D062460A431ED06200570D4A000E03E5
:100620002303550D012402462C492405781B1B0B7E
:10063000360B401823432643614600901C46501A4F
:10064000B44103D30098401C009002E09218009837
:100650005B41002803DA0020014605B0F0BD002010
:10066000012109050746864611E064461D46141B14
:10067000B54106D36546521BB341744607430C434C
:10068000A646CD0740084908284392185B41054615
:100690000D43EAD11046184313D060461946504026
:1006A0007140084306D06046101AB34106D20122B9
:1006B000002306E000220123DB0702E00122D243EF
:1006C0005310009874460105381C6141029C039D3B
:1006D00000196941FFF77AFEBFE70000FD03000043
:1006E0004A0009030123090B1B0519430A4B10B5E6
:1006F000520D9A4202DA0020014610BD064B3433F7
:100700009A4203DC9A1A00F041F810BD034BD2184C
:1007100000F02CF810BD0000FF030000CDFBFFFF30
:1007200010B5002904DB0124E40740428C41214636
:10073000002B04DB1C460123DB075242A3419942F4
:1007400000D1904210BD0000064C0125064E05E088
:10075000E36807CC2B430C3C98471034B442F7D3E2
:10076000FFF7B2FC84340008A434000810B5202A36
:1007700004DB0146203A9140002010BD9140202327
:100780009C1A0346E3401943904010BD10B5202A3F
:1007900004DB0846203AD040002110BD0B46D34070
:1007A000D0402024A21A91400843194610BD10B52C
:1007B000202A06DBCB170846203A1041C1170B430D
:1007C00006E00B461341D0402024A21A9140084372
:1007D000194610BDB0B51B48026801210A430260EA
:1007E0003148826813688B4313601368DB07FCD1C0
:1007F000304B1C68382525431D60134B9360134B09
:10080000D3600023536013601368136013682024BF
:100810001C43146013681360136880241C43146025
:100820000B0214681C4314608B0214681C43146090
:10083000090313680B431360C068016805220A436B
:100840000260B0BD3810024040240140D0000020BA
:1008500010B515498A68136801218B43136013682A
:10086000DB07FCD150601148036804241C4304607A
:100870001068084310600E4802680A4302600903CA
:10088000026A0A430262F4490A1F1268D206FBD5C3
:100890000A68102313430B600168491E0160016A56
:1008A000054A8918016210BD00000020082401409B
:1008B000002C01400400024000F0FFFFF0B585B0BD
:1008C00004910546012421050391344E3069084303
:1008D0003061FFF77FFF284601F04CF87068204335
:1008E00070600325A807716A814371620027019730
:1008F000009705200607304621462A463B4600F071
:100900005AF801970097082130460E462A463B4682
:1009100000F051F8214A10680399084310601068EC
:10092000884310601E4807601E48011F0F60076063
:100930000268026062030368934303600368202235
:1009400093430360A30205681D430560049D03688B
:10095000234303608760C761002D00D12646C6612E
:100960008760836813438360002D01D1220200E079
:10097000E2028368134383600A6822430A60E20745
:100980000B6813430B600A68002AFCD5C66101217D
:10099000090682680A43826005B0F0BD301002404B
:1009A000082701400C240140002A00D10904826973
:1009B0000A4382617047F0B584B001930392531EDD
:1009C0000A9A0292022B2FD2099A009200263746E9
:1009D00003E0B61C7F1C202E44D00123BB400B42F9
:1009E000F7D00322B240046894430460039CB440EF
:1009F000056825430560846894438460009CB44086
:100A000085682543856044689C434460019BBB40E6
:100A100044681C434460C3689343C360029AB24075
:100A2000C3681343C360D4E700231D4603E09B1C47
:100A30006D1C202B16D00A46EA40D207F7D00322BD
:100A40009A40046894430460039C9C4006682643D3
:100A50000660C4689443C460029A9A40C468144310
:100A6000C460E4E704B0F0BDF0B585B00493039230
:100A700000270B9A01920A9A00923D463C46029149
:100A800004E0BF1C2D1D641C402D36D00122A24065
:100A90000A42F6D00321B94006688E43066002265A
:100AA000BE4003683343036083688B438360049BC9
:100AB000BB4086681E438660436893434360039A45
:100AC000A240436813434360C2688A43C2600099EE
:100AD000B940C2680A43C2601C2129400F228A40E3
:100AE000E3089B00C3181E6A96431E62019A8A405F
:100AF000196A114319620299C3E705B0F0BD0000FD
:100B0000F0B585B002931646019107460120820593
:100B100000923D4C2168114321604505206828431F
:100B200020602A2000F098FE2068402104910843AC
:100B3000206020682021039108432060206828431A
:100B400020602068284320602837380A00F084FE9F
:100B5000206828432060F8B200F07EFE2068284319
:100B600020602836300A00F077FE20682843206095
:100B7000F0B200F071FE2068009F384320602068CA
:100B8000284320602B2000F067FE2068049908436A
:100B90002060206803990843206020682843206073
:100BA00020682843206001993531080A0E4600F07C
:100BB00053FE206828432060F0B200F04DFE20680C
:100BC0002843206002993531080A0E4600F044FEA1
:100BD000206828432060F0B200F03EFE20683843D1
:100BE00020602068284320602C2000F035FE20681B
:100BF0000499084320602068039908432060206816
:100C00002843206005B0F0BD1800005010B5044620
:100C10000020EF2286230146FFF772FF0B48048075
:100C20000B4C20680221014321600A4800F082FD3C
:100C30000948011F09688907FBD5016801220A4399
:100C400002602068801E206010BDC046B2070020F0
:100C50000430014020FD000004000240F0B587B0E0
:100C6000151AEA17AF18574006915A1AD117531898
:100C70004B4004939F42039700DC049F00210C46E5
:100C8000C943002A0B4600D113460126002A0196CB
:100C900000963ADD002D069A3BD0002D00DC019134
:100CA0000C9902912346264603E0761CF1B28F424E
:100CB00029DB05930690C0B2D1B2154602460B4619
:100CC000FFF71EFF029800F08FFC049823183946A6
:100CD000BB4201DC2A4601E000982A1806980F461C
:100CE000059C03996118B94204DCDC1B06DDCB1BB3
:100CF000DBDC06E0019C0019DC1BF8DC1C46CB1B8E
:100D0000D3DC0B46D1E707B0F0BD0093002D069A67
:100D1000C3D12946002DC2DDC2E7F0B58BB00593E3
:100D20000346C4B2D0B204900394001BC2178418C7
:100D3000544009940027002805D10690099AD2173B
:100D4000002806DC07E0FA430692099AD217002829
:100D500001DD01200690099D95430191C8B20790DD
:100D600010980A9008931E463C4603E0641CE0B2CB
:100D7000854215DBF0B2079902460B46FFF7C0FE2D
:100D80000A9800F031FC09983818A84202DC471B89
:100D9000ECDC03E006997618471BE7DC0746E5E73D
:100DA0000598C0B202900799401A0027002804D184
:100DB0000590019E002805DC06E0F9430591019E9F
:100DC000002801DD01210591C11740184840079016
:100DD0003C4605E007997F18641CE0B2814213DBB2
:100DE000F1B2039802460B46FFF78AFE0A9800F01C
:100DF000FBFB002F01D005983618002FEAD0079989
:100E0000641CE0B28142EBDA0026344603E0641C45
:100E1000E0B2854217DB089FF8B2029902460B4602
:100E2000FFF76EFE0A9800F0DFFB09983018A84221
:100E300002DC461BEBDC04E006997F180897461B92
:100E4000E5DC0646E3E700242546019E079F03E014
:100E50006D1CE8B2874213DBF1B2049802460B46E0
:100E6000FFF74EFE0A9800F0BFFB002C02D1002CC9
:100E7000EED103E005983618002CE9D1E419E7E734
:100E80000BB0F0BDF0B58DB000F0A8FCFC480168D7
:100E900040220B9211430160002501950327009722
:100EA000F84E3446183C20210A910122089220462F
:100EB00006952B46FFF77FFD0195009720460B9F77
:100EC0003946089C22462B46FFF775FD65053068BC
:100ED00028433060306838433060306828433060E1
:100EE000642000F09FFDA1050C913068084330603C
:100EF0003068284330601120099000F0ADFC306864
:100F00003843306030680A9C2043306030682843A2
:100F10003060782000F086FD30680C99084330601E
:100F2000306828433060362000F096FC3068384343
:100F3000306030682043306030682843306030686B
:100F400028433060702000F087FC30680C9F3843E5
:100F500030603068284330603A2000F07DFC306813
:100F60000B9C2043306030680A9908433060306839
:100F700028433060306828433060052000F06CFC66
:100F8000306838433060306828433060B22000F069
:100F900063FC30682043306030680A990843306051
:100FA0003068284330603068284330600C24079450
:100FB000204600F051FC306828433060204600F0A5
:100FC0004BFC306828433060069800F045FC3068E0
:100FD000284330603324204600F03EFC306828432C
:100FE0003060204600F038FC3068384330603068AC
:100FF00028433060B72000F02FFC30680B9F384347
:10100000306030680A9C204330603068284330608C
:10101000306828433060352000F01EFC30680C99A1
:1010200008433060306828433060BB2000F014FC77
:10103000306838433060306820432746306030687D
:1010400028433060306828433060192000F004FCE9
:1010500030680C9C20433060306828433060C020EA
:1010600000F0FAFB30680B99084330603068384371
:1010700030603068284330603068284330602C206E
:10108000069000F0E9FB3068204330603068284368
:101090003060C22000F0E0FB30680B9F38433060C6
:1010A00030680A9C204330603068284330603068E4
:1010B00028433060089800F0CFFB30680C99084353
:1010C0003060306828433060C32000F0C5FB3068D2
:1010D00038433060306820433060306828433060E7
:1010E000306828433060122000F0B6FB30680C9F57
:1010F00038433060306828433060C42000F0ACFBD7
:1011000030680B99084330603068204330603068A5
:1011100028433060306828433060204600F09CFB54
:10112000306838433060306828433060C62000F0B3
:1011300093FB30680B9F3843306030682043306049
:101140003068284330603068284330600F2000F05A
:1011500083FB30680C990843306030682843306066
:10116000D020089000F078FB306838433060306859
:101170002043306030682843306030682843306056
:10118000A42000F069FB306828433060A12000F003
:1011900063FB30680C990843306030682843306046
:1011A000E02000F059FB306838433060306820435D
:1011B00030603068284330603068284330600898D9
:1011C00000F04AFB3068284330600420059000F0AE
:1011D00043FB3068284330600D27384600F03CFB65
:1011E000306828433060099800F036FB30682843A7
:1011F00030601320049000F02FFB306828433060EB
:101200002B2000F029FB3068284330603F200390FA
:1012100000F022FB306828433060542000F01CFBB3
:101220003068284330604C2000F016FB30682843BB
:101230003060182000F010FB3068284330603846DA
:1012400000F00AFB3068284330600B2000F004FBFC
:101250003068284330601F27384600F0FDFA3068B8
:10126000284330602320029000F0F6FA30680C9991
:1012700008433060306828433060E12004E0C04615
:10128000003001401800005000F0E6FA30680B9979
:101290000843306030680A9C20433060306828433F
:1012A0003060306828433060089800F0D5FA306824
:1012B00028433060059800F0CFFA3068284330604A
:1012C000079800F0C9FA306828433060099800F0A8
:1012D000C3FA306828433060049800F0BDFA3068E3
:1012E00028433060069800F0B7FA30682843306031
:1012F000039800F0B1FA306828433060442000F0D1
:10130000ABFA306828433060512000F0A5FA30680D
:10131000284330602F2000F09FFA30682843306067
:10132000384600F099FA306828433060384600F0BB
:1013300093FA306828433060204600F08DFA306818
:1013400028433060029800F087FA30680C9F3843D9
:101350003060306828433060212000F07DFA30682A
:101360000B9C2043306030680A9908433060306835
:10137000284330603068384330603068284330603C
:10138000292000F069FA30682043306030680A99FB
:10139000084330603068284330600DB0F0BD000075
:1013A000F0B583B0029317460446401DC2B208460A
:1013B0000B30C3B220460D46FFF7A2FB203FF8B228
:1013C0000999002900D1A3E00C2141437548401838
:1013D0000190002726462A4600940198C55DE8073B
:1013E0000BD0F0B2D1B2144602460B46FFF788FB91
:1013F000029800F0F9F82246009C701CC0B2011B54
:1014000006297DD0A9070AD5D1B2144602460B465B
:10141000FFF776FB029800F0E7F82246009CB01C2C
:10142000C0B2011B06296BD069070AD5D1B2144698
:1014300002460B46FFF764FB029800F0D5F82246FF
:10144000009CF01CC0B2011B062959D029070AD5FF
:10145000D1B2144602460B46FFF752FB029800F049
:10146000C3F82246009C301DC0B2011B062947D09C
:10147000E9060AD5D1B2144602460B46FFF740FBF7
:10148000029800F0B1F82246009C701DC0B2011B0A
:10149000062935D0A9060AD5D1B2144602460B4614
:1014A000FFF72EFB029800F09FF82246009CB01D2B
:1014B000C0B2011B062923D069060AD5D1B2144651
:1014C00002460B46FFF71CFB029800F08DF82246FF
:1014D000009CF01DC0B2011B062911D029060AD5B7
:1014E000D1B2144602460B46FFF70AFB029800F001
:1014F0007BF82246009C0836F0B2001B062801D17A
:10150000521C26467F1C0C2F00D066E703B0F0BDAE
:10151000089C0C21414323484518002604E000F0B4
:1015200063F8761C0C2EF1D0AF5DF807204619D178
:1015300000F05AF8B80720461AD400F055F878079A
:1015400020461BD400F050F8380720461CD400F089
:101550004BF8F80620461DD400F046F8B8062046A1
:10156000DDD51DE0029800F03FF8B8072046E4D52D
:10157000029800F039F878072046E3D5029800F089
:1015800033F838072046E2D5029800F02DF8F80627
:101590002046E1D5029800F027F8B8062046BED5CF
:1015A0000298BCE7922F0008F0B585B01778002F9D
:1015B00017D00C4606460B9804900A980390551CC9
:1015C0000498019003980090F0B2FAB221461F46A9
:1015D000FFF7E6FE3B46681CB61D2F78002F054638
:1015E000EED105B0F0BD000070B504460120450500
:1015F000064E306828433060200A00F02DF930682C
:1016000028433060E0B200F027F970BD18000050A8
:10161000F0B583B0029106460124E5036D4F3868AA
:1016200028433860204600F0FDF938681A49401810
:101630003860002E2DD0386928433861042001908D
:10164000009405200007102100220323FFF70CFA65
:10165000B100364A505A431E1048C3625118498897
:10166000491E8162016880220A430260816960220A
:101670000A43826181690C220A43826102994163B3
:10168000416921434161016A2143016201682143AB
:10169000016003B0F0BDC0460080FFFF00200040A5
:1016A000F0B583B0029106461E4F386802252843E4
:1016B00038600124204600F0B5F93868801E386093
:1016C000002E2DD0386928433861019400941648C3
:1016D0002021002203273B46FFF7C6F9B100134A39
:1016E000505A431E1248C36251184988491E8162EC
:1016F000016880220A430260790382690A43826199
:10170000B90282690A438261029981634169214376
:101710004161016A10220A430262016821430160AB
:1017200003B0F0BD2C100240000400505C0000200B
:1017300000040040444909680B68012293430B6090
:101740000B68DB07FCD148600868104308607047ED
:1017500070B582B01F4D686801242043686026037D
:101760002869304328610022019200940520000777
:1017700006210323FFF778F928683043286028689A
:10178000B04328606102144802680A4302602102E3
:1017900002680A4302600168016001680722114380
:1017A0000160110242680A434260C1690B22914301
:1017B000C161016840220A43026081688907FCD543
:1017C000FF2101733121C90182680A42FAD102B0B6
:1017D00070BDC0463010024000300140B0B519481D
:1017E000026801210A430260174802681368DB0798
:1017F000FCD1164B1C68072525431D60144B9360D4
:10180000144BD360002353601360136810241C43EF
:101810001460136820241C43146013681360136859
:101820001360136813608B0214681C43146009036F
:1018300013680B4313604068016811220A43026079
:10184000B0BDC04638100240000000200400024035
:101850000C300140B207002005490A689207FCD508
:1018600008713120C0010A680242FAD17047C046AF
:101870000830014070B50F4C2546343D0126360234
:101880002E6025462C3D00262E602546283D2E60E4
:1018900025461C3D2E6000F011F807480660032025
:1018A0000102324A13680B4313602168014321602F
:1018B00070BDC0463410024008ED00E0F0B582B0C3
:1018C000009301252B06274C26460C3E37680193D2
:1018D0009F4337606F0633683B42FCD100022368A8
:1018E000034323600801103821680143216050043C
:1018F0001D49401821680143216007204107009AD3
:101900005207511822680A432260290722680A43B5
:1019100022602168032291432160226802210A4348
:1019200022603268019B1A43326032683A42FCD02E
:101930000E4A13680B4313602B0216681E43166091
:101940006B0215681D431560221F136883431360E3
:1019500010680843106010688007FCD5002002B0B2
:10196000F0BDC0460C1002400000FEFF0020024007
:1019700070470000B0B50121CA02164B1C68144321
:101980001C608300144CE25A551E1448C562E318CB
:101990005B885B1E8362036880241C43046007230A
:1019A0001B0544681C43446003686024A343036030
:1019B00003235C03C5692543C5619B02C4691C43BD
:1019C000C4615208036C134303644903026A0A4367
:1019D0000262B0BD401002402C000020002C0140EB
:1019E000B0B50A4C2068C0070BD0094D2A780520F5
:1019F00000070121C902FEF7D7FF28784142414183
:101A000029702068012188432060B0BD1004004087
:101A1000B4070020244908802248016804220A43B0
:101A200002607047F0B581B004461E252946FEF7D6
:101A30005FFB4543631B1A4A1A491E2C15D31A4CE7
:101A400025881A4C6C434C6000258D600F68012678
:101A500037430F600F681740012FFBD00F68B74363
:101A60000F608D60401E0504EDD1180415D07D2057
:101A7000C000584380B20C4B1B8843434B6000208E
:101A800088600C6801231C430C600C681440012C16
:101A9000FBD00A689A430A60886001B0F0BDC04676
:101AA0000100010010E000E0B007002030750000E8
:101AB000F0B593B00024019400940C2073A2774FEA
:101AC00021463B46FFF770FD7548C2697548824262
:101AD00008D37D20C1001046FEF70AFB02460CA881
:101AE00072A101E00CA8704900F0BEFD01940094C1
:101AF0000C206D240CAE214632463B46FFF754FDC8
:101B0000674D287A421C6CA1304600F0ADFD687824
:101B10001F21CD02009501460B394A1E91410191CA
:101B2000012801D0384600E0654883B26020214694
:101B30003246FFF739FD5A4C226A6248824202D28D
:101B40000CA8624907E07D20C1001046FEF7D0FADC
:101B500002460CA85C4900F087FD607800950146BC
:101B60000C394A1E9141019102282B4600D03B4678
:101B700078206D210CAAFFF717FD66200027394653
:101B800000F060FC60780A210B91FEF7B1FA05299C
:101B900055D8208A0690FEF78DFB4D4E3146FEF754
:101BA000E3FAFEF78EFB0A900991A48A2046FEF71D
:101BB00081FB3146FEF7D8FAFEF783FB07900891C8
:101BC0003748068B3046FEF775FB4149FEF7CCFAE5
:101BD000FEF777FB03460A460698011B38460ED0EF
:101BE000069314463748401C7043FEF797FA0A21C3
:101BF000FEF794FA642800D364202246069B0490E2
:101C00000293079800900392089801900CAC31A1C0
:101C100020460A9A099B00F027FD019700970C20A7
:101C2000792122461D4E3346FFF7BEFC1C4C0B9A11
:101C3000207900280CD001280CD102220DE00C20C4
:101C4000792100F0F1FA154E0B9A20790028F2D193
:101C5000012202E0022800D105220CAC29A1204675
:101C600000F002FD0E484078009501460D394A1EED
:101C700091410191032800D03546A2206D212246D2
:101C80002B46FFF791FC13B0F0BDC04644534F20E4
:101C9000427920456C7465637A000000FFFF000004
:101CA000A00000201127000067340008467265710B
:101CB0003D2535644B687A00414425643A000000B4
:101CC00000F8FFFFE70300005A340008543400080E
:101CD0003333533A4D61783A25312E326C665620B3
:101CE0004D696E3A25312E326C6656204176673A40
:101CF00025312E326C665620447574793A2532644B
:101D000025250000253264580000000006480168BF
:101D100001220A430260016802220A43026001684C
:101D200004220A430260704734100240F0B583B0C9
:101D30000024019403260096052000078025012237
:101D400029462346FEF737FE022701970094B10388
:101D5000074822462346FEF72EFE019700940548C9
:101D6000294622462346FEF726FE03B0F0BDC046B4
:101D7000000800500004005010B59948016849045B
:101D800009D40068000408D4964800688009022439
:101D9000044003D1A9E0012400E00324FA20FFF766
:101DA00041FED748417809290BD8032C28D0022CB2
:101DB0002BD0012C00D098E0092929D0491C417072
:101DC00010BD0A2900D190E0632900D98DE00B39BC
:101DD000082900D989E0C0467944097949008F442F
:101DE000041A273442505D6A7700032C03D0022C7A
:101DF0000ED0012C79D1017A4A424A41027210BDBB
:101E0000012973D0491E417010BD0A31417010BDC7
:101E10000121417010BD032C6BD0022C6FD0012C1E
:101E200063D1416A092900D1B0E0491C416210BD6B
:101E3000032C67D0022C6BD0012C56D101790329D9
:101E400000D186E0491C017110BD032C63D0022C27
:101E500068D0012C49D1F3480178022900D198E0DB
:101E6000491C017010BD032C5FD0022C64D0012CE2
:101E70003BD1EC488178092900D18DE0491C817063
:101E800010BD032C5BD0022C60D0012C2DD1E54875
:101E900001790F295DD0491C017110BD032C5BD065
:101EA000022C60D0012C20D1DE4881790A2976D01D
:101EB000491C817110BD032C58D0022C5DD0012C1F
:101EC00013D1D848017A0F296CD0491C017210BD7A
:101ED000032C55D0022C09D0012C06D1D148017B0E
:101EE0000A2962D0491C017310BD10BD092141703F
:101EF00010BD416A00295BD0491E416210BD02211C
:101F0000417010BD0179002955D0491E017110BDE5
:101F10000321417010BDC348017800294ED0491EED
:101F2000017010BD0421417010BDBE4881780129A7
:101F300047D0491E817010BD0521417010BDB948C0
:101F40000179002940D0491E017110BD0621417060
:101F500010BD0021017110BDB2488179002936D031
:101F6000491E817110BD0721417010BDAD48017A35
:101F700000292FD0491E017210BD0821417010BDEB
:101F8000A848017B002928D0491E27E00021416292
:101F900010BD0021017010BD0121817010BD002114
:101FA000817110BD0021017210BD0021017310BDAF
:101FB0000921416210BD0321017110BD0221017090
:101FC00010BD0921817010BD0F21017110BD0A21C2
:101FD000817110BD0F21017210BD0A21017310BD66
:101FE00010080050100400506424042120460A46C2
:101FF0000B46FFF73FFC2046FFF70CFDFFF786FE80
:102000000624072520462946FFF702FB20462946DD
:10201000FFF746FB002420462146FEF74FFCFFF762
:1020200085FEFFF795FBFEF72DFF2046FEF7EEFD40
:1020300000F0E6F800F002F8FCE70000F0B581B02F
:10204000F14E7089401C70817478B078844211D050
:102050002420305C317AFEF731FC0020FEF7D6FDFB
:10206000E74CA1792079FFF7D3FA217B207AFFF79B
:1020700017FB74780020F061B081307030833082BB
:1020800001200003B082DE4FB87800030A252946FC
:10209000FEF72EF83882706A80001A490A5A08182A
:1020A000408850436843306220462946FEF720F8B6
:1020B00006291AD33879144D002809D08000134915
:1020C0000A5A0818418851432846FEF711F8B062B1
:1020D000387A002809D080000C490A5A081841882B
:1020E00051432846FEF704F8F062B470372000012F
:1020F000FEF7AEFB00F024FAFFF73EFE01B0F0BDA4
:10210000A00000202C00002000E1F5055C0000206C
:10211000F0B581B0BA480278002A25D0008AA521FE
:102120008900354B012A2CD1DC330024274600944A
:10213000224607E0FB4EB5810095521C641C9B1C97
:10214000A14240D01D888542F8D89D1E2D88854229
:10215000F4D925466E35009EDC36AE4233D3ADB29F
:102160001604E7D02F46E8E7002400942746ED4DFB
:10217000A88900282DD101202870DC20A88101B079
:10218000F0BDDA33002427460094224608E0E54FEC
:10219000BD8100953746521C641C9B1CA14212D085
:1021A0005D888542F8D31D888542F5D23E46254696
:1021B0006E35009FDC37AF4204D3ADB21704E6D0D2
:1021C0002F46E8E73746501E84B2D64DA88900282E
:1021D000D1D0296A0948FDF78BFF44430098874214
:1021E00002D1EC6101B0F0BD391A2046FDF780FF45
:1021F000E86101B0F0BDC046D000002000CA9A3BA3
:10220000B0B5C84801218170417000214181C34DA2
:102210006869DC242146FDF79CFFA8692146FDF78B
:1022200098FFB0BD10000020F0B589B00E460546FD
:102230000024019400946DA2704BFFF7B5F970482B
:102240000079704900280BD06F48826A8A420ED903
:1022500070491046FDF74CFF024606A86E4914E08F
:1022600006A884716D4981806D4806900FE0D00802
:102270007D2808D37D20C1001046FDF739FF0246B6
:1022800006A8634901E006A8604900F0EDF95E4840
:1022900040781F21CF020097014610394A1E914114
:1022A00001910628039401D0544800E05D4883B2B0
:1022B00028461E30C0B206AA3146FFF775F92C46F3
:1022C0004F4D2879002805961ED00494A8790A223B
:1022D000424306AE5449304600F0C6F94A484078B9
:1022E0000097014611394A1E9141019107283B464A
:1022F00000D0424B049C20464830C0B2059932467B
:102300000E46FFF751F93E4D04973146039E019664
:10231000009627466634E0B244A2384BFFF744F9F2
:10232000287A002810D0384DEA6A364882423C4666
:1023300014D938491046FDF7DBFE024606A8364997
:1023400000F092F9049F1AE006A886713349818053
:10235000334806903C46049F2B4D10E0D0087D2862
:10236000049F08D37D20C1001046FDF7C1FE024640
:1023700006A8274901E006A8244900F075F9687805
:102380000097014612394A1E9141019108283B46A7
:1023900000D01A4B20467C38C0B206AE05993246B2
:1023A000FFF702F925A1304600F05EF91449087ADA
:1023B000002818D0087B0A22424306AE1A4930464C
:1023C00000F052F968780097014613394A1E91418E
:1023D0000191092800D0094F523CE0B205993246DC
:1023E0003B46FFF7E1F809B0F0BDC04650574D310C
:1023F0003A2020202020207C00000000FFFF000069
:10240000100000203F420F00A000002060340008B0
:102410007334000840420F007A3400082020000086
:102420004F46462000F8FFFF4E34000850574D320B
:102430003A2020202020207C000000003430252578
:1024400000000000F0B58BB0059134490B78344C96
:102450002268802104910A4322601F22D7025D0076
:102460002C467F342F494A782F49042A3E4613D000
:102470002C4F3F78002F0F460ED0002B0F460BD06D
:10248000284B5F8901231F400F4605D0DB052449F7
:102490000F681F430F60002700960E3A511E8A41B5
:1024A0000192E2B20390059C21463B46FEF778FF7D
:1024B0001C48407800960E38411E884101900498CF
:1024C0004540EAB23546039EB01DC0B221463B46A8
:1024D000FEF766FF11488078FDF7ECFE1349FDF723
:1024E00043FEFDF7EEFE02460B4606AF10A138464E
:1024F00000F0BAF80B484078009501460F394A1EA3
:1025000091410191052800D0074D1836F0B22146BF
:102510003A462B46FFF748F80BB0F0BD10000020FC
:1025200018000050A0000020FFFF0000C3F5A83EE7
:10253000547269673D25312E336C665600000000E9
:10254000F0B585B0444C208A602104914843010BCA
:102550006C2003900F46401A0290FFF7D9FD656981
:1025600000263446295D28194378009620460C3011
:10257000C0B20246FEF772FB641CDB2CF2D1602F66
:1025800001D802980390354801798089324A56690A
:1025900000290AD0012901D1C02105E00F2202291A
:1025A00001D0910100E05101049140002C4909182B
:1025B000D920C2432948058A0020334604E0001987
:1025C0005B1C921CDE2A16D08C5A049F7C43240B81
:1025D000602C00D360246B273C1B1C708C5AAC42CF
:1025E00002D91E4D2C8225461C4FBF8ABC42E6D222
:1025F0001A4FBC82E3E7DC21FDF77AFD1749088317
:102600000024315D301943783F204001009020467E
:102610000C30C0B20246FEF721FB641CDB2CF0D16B
:102620001F2000900C20E8226C230146FEF775FB6A
:10263000FFF73EFA09480079002801D005B0F0BD47
:10264000084800900398C1B20C20E8220B46FEF720
:1026500005FB05B0F0BDC04610000020A000002022
:10266000D000002040BC00000FB410B504A9074BF7
:1026700002AA039800F0ECF8044602A9002000F03A
:1026800083FC204610BC08BC04B01847892F000802
:102690002021020C01D010211046020A01D0104660
:1026A0000839020901D01046091F820801D01046DE
:1026B000891E420801D0881E7047081A704702E040
:1026C00008C8121F08C1002AFAD1704770470020BD
:1026D00001E001C1121F002AFBD17047F0B51FB401
:1026E00086B00998089A030D0021024314D051487E
:1026F000514A1818504305141198012810981AD0FF
:10270000281A401C00264D4F4D4900960191049017
:10271000002812DA444211E01198012449A301284B
:1027200001D11098C1430698119A84600360C26079
:1027300041600BB0F0BD4042E4E7044621050020B3
:102740003F4A001C51410391029012E0E00707D07C
:1027500032463B4601990098FDF744FD01910090F7
:1027600032463B4610461946FDF73CFD06460F46ED
:102770006410002CEAD10498039B0028029A09995E
:10278000089806DAFDF72EFD019B009AFDF72AFD59
:1027900005E0FDF72DFF019B009AFDF729FF044698
:1027A0000E460022284BFDF7BBFF03D80020C04394
:1027B000014607E00022254B20463146FDF766FE24
:1027C000FDF78EFF102409E0002C0ADB0A2200230B
:1027D000FDF78BFD079B30321A55641E02460A43F3
:1027E000F2D11122641C079B121B1C19119B012B97
:1027F00003D0012308430ED10AE0084304D011207E
:1028000010900020119077E71098151A6D1E0BE0BC
:102810001098824202DD00236D1C03E0824201DA3F
:1028200000236D1E002BEED0069811998260C160C6
:1028300030C07EE701FCFFFF104D00000000144097
:102840000000F03F300000000000F0430000E03FD7
:10285000FFB597B00646002518E2252877D1002459
:102860002746FD49049400E00443761C3278012099
:10287000203A90400842F7D130782A280ED0022220
:10288000307801463039092916D804990A2359436A
:10289000303940181443761C0490F1E7189802C8A8
:1028A00004911890002904DA0120400304434842AF
:1028B000049002200443761C30782E2814D1042082
:1028C00004437078761C2A2809D11898761C80C891
:1028D000189009E00A214F43303FC719761C307821
:1028E000014630390929F5D930786C2810D006DC3A
:1028F0004C281AD068280ED06A2817D104E0742812
:1029000013D07A2812D110E00120400504430CE0D6
:102910000121090501E0032109050C437178814279
:1029200003D1012000052418761C761C3078119004
:1029300066280BD013DC58287DD009DC00287BD01A
:102940004528F6D04628F4D047281AD1A5E118E04A
:10295000632835D0642870D0652812D19DE1702895
:102960006CD008DC6728F1D069287BD06E280DD0A8
:102970006F2806D1BAE073282ED0752871D0782838
:1029800059D01A9A199990476D1C7EE16002400F48
:10299000022809D003280DD00428189801680DD00A
:1029A0000D60001D189070E11898EA1701680D601D
:1029B0004A60F6E7189801680D80F2E70D70F0E7BD
:1029C00018986A4601781172001D18900020507204
:1029D00002A80090012005E0189802C81890002075
:1029E0000091C04361070DD5002101E00199491C08
:1029F0000191B94212DA8142F8DB009A515C002958
:102A0000F4D10BE0002101E00199491C01918142C0
:102A1000FADB019A0099895C0029F5D101990498A3
:102A20001A9B471A21463846199A00F097FA0199DD
:102A3000401945180BE04FE02CE113E04EE0009800
:102A400000990078491C00911A9A199990470198A9
:102A5000401E0190401CF2D1214638461A9B199A1B
:102A600010E137E00A200021009001916002410F3F
:102A7000022907D0189A01CA1892C217944603294E
:102A800008D00AE01898C01DC108C90005C91891EE
:102A9000944607E000B2C2179446042902D140B21E
:102AA000C1178C4600226146944506DA0A46002189
:102AB000404291418C462D2102E0210504D52B2175
:102AC0006A461173012103E0E10701D02021F7E7F5
:102AD000029155E00A200AE0102008E01020009042
:102AE0000021042004430191082703E0082000216D
:102AF000019100906002410F022907D0189A01CA83
:102B0000189200229446032908D008E01898C01DA6
:102B1000C108C90005C91891944603E080B2042990
:102B200000D1C0B200210291210729D51199702945
:102B300006D0009A1021019B4A401A4305D00EE0AE
:102B400040216A461173012108E06146014306D025
:102B500030216A4611731199517302210291009A32
:102B60000821019B4A401A430AD16146014301D121
:102B7000610705D530216A46117301217F1E02913C
:102B80001199582904D035A10E910DA90D910DE090
:102B900037A1F9E76146019B009AFDF7A6FB0E9B62
:102BA0008C469B5C0D9A521E0D9213706146014338
:102BB000F0D10D9805A9081A20300190600703D5BF
:102BC00001200004844300E001270198874201DDD1
:102BD000381A00E000200199009041180298091865
:102BE0000498401A0490E00306D421461A9B199ACF
:102BF000049800F0B3F94519002706E003A81A9AD3
:102C0000C05D199990476D1C7F1C02988742F5DBC7
:102C1000E0030CD521461A9B199A049800F09EF9FE
:102C2000451904E01A9A3020199990476D1C0099B3
:102C3000481E00900029F5DC08E00D980D990078F9
:102C4000491C0D911A9A199990476D1C0199481EBB
:102C500001900029F1DC63E10928010030313233B1
:102C600034353637383961626364656600000000C8
:102C700030313233343536373839414243444546B2
:102C80000000000000F05AF94519761C3078002841
:102C900000D0E2E528461BB0F0BD600700D406274F
:102CA0001898C01DC108C90048680A680831C30FD8
:102CB000DB071891190001D09CA108E0210501D57E
:102CC0009BA104E0E10701D09AA100E09AA1430092
:102CD00011985B08109165280CD006DC452809D0B6
:102CE00046281DD0472841D141E0662818D06728E2
:102CF0003CD13CE00021112F01DB112000E0781CC9
:102D00000191009008A911A8FFF7E8FC139905911B
:102D10000021119A15927F1C12980197009150E0A2
:102D20000120C00703900120019008A9009711A875
:102D3000FFF7D4FC139A149905920022119B00927C
:102D400012981593059A0192002901D0104602E0CD
:102D5000791C40180190381A01D5019804E04042CE
:102D6000401E0090781C0190C01B029043E0012F90
:102D700000DA01270021112F01DD112000E0384683
:102D80000191009008A911A8FFF7A8FC13990591DB
:102D9000119A0021129815920091019721070CD4E5
:102DA0000599B94201DB019900E00191012904DD97
:102DB000159A491E515C302906D0B84201DA011D2E
:102DC00005DA0121029115E00199491EEDE700287D
:102DD00005DC0099411800910199091A03E0019A54
:102DE000411C914200DD01910099401A401C029063
:102DF0000120C0070390200706D402990198814260
:102E000002DB0020C043029000206946C87707AF6C
:102E1000012103980337C907884224D0022011906A
:102E20002B201290039800280CDA404203902D20AA
:102E3000129007E00A210398FDF75AF930317F1EFE
:102E4000039039701199481E11900029F2DC039803
:102E50000028EFD1791E12980870307820210840A0
:102E60004530BF1E387006A8C01BC01D03901098C7
:102E70000078002800D00120019941180298C0175D
:102E80000918039809180498401A401E0490E0039A
:102E900006D421461A9B199A049800F05FF8451948
:102EA00010980078002803D01A9A199990476D1C41
:102EB000E00324D521461A9B199A049800F04EF895
:102EC00045191CE00098002807DB00990598884206
:102ED00003DD1598405C199901E0199930201A9A80
:102EE000904700986D1C401C00900298401E029074
:102EF000002804D11A9A2E20199990476D1C019927
:102F0000481E01900029DDDC05E038781A9A7F1C04
:102F1000199990476D1C0399481E03900029F4DC11
:102F200021461A9B199A0498ACE600002D00000077
:102F30002B0000002000000000000000F8B504464F
:102F400000251E461746880404D405E03946202093
:102F5000B0476D1C641EF9D52846F8BDFFB5044680
:102F6000002581B01E46C80301D5302700E0202788
:102F7000880404D505E038460399B0476D1C641EEB
:102F8000F9D5284605B0F0BD0A68531C0B601070D7
:102F9000704700000000000000000000000000007A
:102FA0000404040404000004000014140A000000D7
:102FB00000000000000000000A0A1F0A0A1F0A0A97
:102FC000000000040E1505060C14150E0400000088
:102FD00012150D152E2C2A1200000000040A0A36C4
:102FE0001515291600000202010000000000000073
:102FF0000000100808040404040408081000020477
:103000000408080808080404020000000004150E63
:103010000E150400000000000008083E080800002B
:10302000000000000000000000000202010000009B
:103030000000003F00000000000000000000000051
:103040000000000200000020101008080404020222
:10305000010000000E1111111111110E00000000ED
:10306000040604040404040E000000000E111108FC
:103070000402011F000000000E11100C1010110EB0
:1030800000000000080C0C0A091F081C00000000CA
:103090001F01010F1110110E000000000C12010D94
:1030A0001311110E000000001E100808040404048F
:1030B000000000000E11110E1111110E0000000091
:1030C0000E1111191610090600000000000004007E
:1030D00000000004000000000000000400000004E4
:1030E00004000000100804020204081000000000A0
:1030F00000003F003F000000000000000204081034
:1031000010080402000000000E111108040400045D
:10311000000000001C22292D2D1D221C0000000093
:1031200004040C0A0A1E1233000000000F12120ED3
:103130001212120F000000001E1101010101110EF8
:10314000000000000F1212121212120F00000000F5
:103150001F120A0E0A02121F000000001F120A0EA0
:103160000A020207000000001C1201013911120CB2
:10317000000000003312121E121212330000000071
:103180001F0404040404041F000000003E08080893
:10319000080808080907000037120A060A12123741
:1031A00000000000070202020202223F00000000AD
:1031B0003B1B1B1B15151535000000003B12161696
:1031C0001A1A1217000000000E1111111111110E20
:1031D000000000000F12120E0202020700000000A1
:1031E0000E1111111117190E180000000F12120EF6
:1031F0000A121237000000001E1101060810110FFC
:10320000000000001F1504040404040E0000000068
:10321000331212121212120C000000003312120AA2
:103220000A0C040400000000151515150E0A0A0A00
:10323000000000001B0A0A04040A0A1B0000000028
:103240001B0A0A0A0404040E000000001F090804F7
:103250000402121F00001C040404040404040404F7
:103260001C000002020404040808081010000E08E4
:1032700008080808080808080E00040A00000000F2
:10328000000000000000000000000000000000003E
:10329000003F0204000000000000000000000000E9
:1032A0000000000C121C123C000000030202020E7F
:1032B0001212120E000000000000001C1202120C7C
:1032C000000000181010101C1212123C0000000028
:1032D0000000000C121E021C000000182404041E32
:1032E0000404041E000000000000003C120C021C3C
:1032F000221C00030202020E121212370000000408
:10330000040000060404040E000000080800000C7D
:1033100008080808080700030202021A0A060A132E
:1033200000000007040404040404041F000000005B
:103330000000000F15151515000000000000000F1B
:1033400012121237000000000000000C1212120CC2
:10335000000000000000000F1212120E0207000011
:103360000000001C1212121C103800000000001B8C
:1033700006020207000000000000001E020C101EE2
:10338000000000000004041E0404041C00000000EF
:103390000000001B1212123C000000000000001B85
:1033A0000A0A04040000000000000015150E0A0AB5
:1033B000000000000000001B0A040A1B00000000BF
:1033C0000000003312120C08040300000000001E6D
:1033D0000804041E000018080808080C080808085B
:1033E000180008080808080808080808080806045B
:1033F0000404040804040404060016090000000084
:1034000000000000000000FE020A926262920A02BE
:10341000FE00001F10141211111214101F00003EA4
:10342000023A020A122202023E00001F1011111578
:10343000131117101F00003E022222322A223A02E4
:103440003E00001F10171112141010101F0025321B
:10345000642525002534646E73002534647573007B
:1034600025336420687A00467265713D25356420F5
:10347000687A002533644B687A002533644D687A96
:1034800000000000A834000800000020A000000098
:10349000BE26000848350008A0000020D01000001B
:1034A000CE2600080000000008000240000802408C
:1034B0001C0002400408024001000500060007004D
:1034C000060000000700000000080000910800202E
:1034D0006D0900201400010019000200140005000D
:1034E00014000A00140019001400320014006400D3
:1034F0001400FA001400F4011400E8031400C409D5
:1035000014008813000000000A0001000A000200F5
:103510000A0005000A000A000A0014000A0032002E
:103520000A0064000A00C8000A00F4010A00E80367
:103530000A00D0070A0088130A0010270A00204E4C
:083540000A0050C30000000066
:04000005080000C12E
:00000001FF
